:0800000029C0FECFFDCFFCCFAB
:10000800FBCFFACFF9CFF8CFF7CFF6CFF5CFF4CFB4
:10001800F3CFF2CFF1CFF0CF45C0EECFEDCF000058
:100028000019C0F9A4B0999282F8809001002D4E71
:10003800414E00494E4600000400040026000A0014
:1000480060012A000100720134000000F894EE27D4
:10005800ECBBF1E0FBBFEBBFE5BF8DE0A2E0BB2747
:10006800ED938A95E9F780E094E0A0E6ED93019797
:10007800E9F7E0E4F0E085919591009761F0A591AA
:10008800B59105901590BF01F00105900D9201976B
:10009800E1F7FB01F0CFEFE5EDBFE4E0EEBFC0E62E
:1000A800D1E01EC10A921A92FA926A937A938A93BD
:1000B8009A93AA93BA93EA93FA93EFB7EA9343947D
:1000C8003ED2E991EFBFF991E991B991A99199913E
:1000D800899179916991F9901990099018952897C3
:1000E800A1E030D296D4A0E0B0E583E497E4D5D37C
:1000F8002CD22ED2A7D42CD3E0936A01F0936B01B3
:1001080060936C0170936D01A0916A01B0916B01CD
:1001180080916C0190916D011BD2BFD316D2A8D1EA
:10012800A3E3B3E185E993E46AD3A0E0B0E387E70A
:1001380095E415D3AAE7B1EF8FE899E4AED3E0933D
:100148006E01F0936F016093700170937101A3E3E6
:10015800B3E988E893E4FCD2EC83FD836E837F8364
:10016800A895EC81FD816E817F8186D228960895BD
:10017800AA931A9310E0183078F4E981E078E0380F
:1001880011F4919A01C091989298E981EE0FE98350
:10019800A895929A1F5FEFCF92981881229608959A
:1001A800AA93A881BB27EAE0F0E017D4D6D1A881AA
:1001B800B0E0EAE0F0E00CD4D0D1A895939AA1E0A1
:1001C800D0D1939821960895AA932897E0E0EC83DC
:1001D800ED83EE83EF8366D4EA85E7B98BE18A95F0
:1001E800F1F700E010E0083CE0E01E0784F4369ADE
:1001F800349902C0A895FCCF349AE4B1F5B1B3D1D3
:1002080066277727AFD3B4D10F5F1F4FECCFB5D197
:100218006AD29BD1E0E0F0E068E473E43ED3B2D167
:10022800AA81BB818C819D81E0E0F0E060EA70E406
:10023800E6D28BD1E0E0F0E060E874E42ED335D468
:100248002B960895EDE9E1BFEFE3E7BBE0E0E8BBFB
:10025800E8E0E4BBE0E0E5BBEEE3E1BBE0E0E2BB05
:10026800E3BFE2BFEFBDEEBDEDBDECBDE7BDE6BD52
:10027800EBBDEABDE9BDE8BDE2BDE5BDE4BDE3BD5A
:10028800E9BFE5BFEAB9EBE0E8B9E0E0E0BFE7B90C
:10029800E4E8E6B9E0E0E0BFEDB9E6BFEEE1E1BDD4
:1002A800EEE0E1BD789473D175D171D19598A89598
:1002B800A0E1B0E0D4D35E2EA0E2B0E0D0D37E2E91
:1002C80008952497A2E03ED1A9D3E0E0F0E060E9E8
:1002D80070E428D310F4E1E001C0E0E0249608952A
:1002E800229710E000E0AEDFA52D5ADF10E0A895B8
:1002F80080990CC04CD1809902C0A895FCCF9598E4
:10030800003021F44AD114F4539450D19C991DC063
:100318003ED195989C990EC0A89511D11F5F1536AE
:1003280040F010E0C29A9C9902C0A895FCCFC298F0
:1003380001E0F0CF003049F4E1E05E1608F05A948D
:10034800552011F4E3E65E2E31D19D998CC01FD162
:100358009598A8959D9935C0F2D01F5F153680F104
:1003680010E015D195989D9902C0A895FCCF23D18E
:10037800A72D16DFA89580990AC009D1809902C0D7
:10038800A895FCCF959809D114F4739417D19C992A
:100398000BC0FDD09C9902C0A895FCCF9598E2E0CF
:1003A800E71510F47A940AD19D9907C0F0D09D9969
:1003B80002C0A895FCCF959897CFA4E6D2D0D8CF05
:1003C800C9CF7FDFE9838BDEE883A881E9DEA895C2
:1003D800A0EDB7E003D1A981A03029F0A881A3330B
:1003E80010F4A83238F4D3D0D5D0D1D0D3D0CFD0D0
:1003F80095987ACFC09ADFD0451430F4A895A42DEB
:10040800CFDEA2E3AED0F8CF4424C098D4D00030D9
:10041800C1F4C29AA52DBB27E72DF0E0C1D2DF01B8
:10042800E9E1F0E0D5D2AF0120E030E0241735074C
:1004380038F4A8EEB3E0D2D0A8952F5F3F4FF6CF9F
:10044800C298C19AA52DACDE20E030E02A30E0E069
:100458003E0738F4A8EEB3E0C1D0A8952F5F3F4F10
:10046800F5CFC19800E0A895A4E67BD03DCFFFCF9B
:10047800E4D2249717D377D00FD32CF0EFEFFFEF08
:100488006FE77FEF59C079D0D3D2ADB7BEB7119718
:100498001F930F93ADD00F911F916AD064D0E3EFF3
:1004A800F4E065E37FE33ED230F467D05CD057D107
:1004B8005FD00150104087D04BD17F936F93FF934B
:1004C800EF9381D04CD1AF91BF918F919F91E5D19E
:1004D8004FD053D048D093D155D07BD0A6E2B2E4C8
:1004E80085E69FE38CD131D0EEE4F1E164E570E478
:1004F800A9D22ED138D083D17F936F93FF93EF93F6
:1005080068D0ADE4B1E184ED9FE322D1AF91BF9112
:100518008F919F91C2D17F936F93FF93EF93F801CF
:1005280032D2E3D0A8E1B2E781E39FE368D1AF918B
:10053800BF918F919F9113D1B8D22A960895AAE0BE
:10054800B0E04CC041DE6FD20895DF01CB010895C1
:10055800E0E0F0E46CE176E40895E05AFE4FA08113
:1005680007CEB0E03BC0AE81BF81888599850895EC
:10057800EE83FF83688779870895EE81FF81688518
:1005880079850895EA83FB836C837D830895959A22
:10059800A2E3E7CF9598A8ECE4CFA52DBB27E72DDC
:1005A800F0E0FED1EC32A1E0FA070895E52DA0E1D4
:1005B800B0E061D20895A4EFB1E010C0E72DA0E249
:1005C800B0E059D20895D9DFA0E0B0E080E89FE319
:1005D8000895EA81FB816C817D810895109639F038
:1005E80080ED97E00197F1F7A8951197C9F708955D
:1005F800E991F9916991799177FB660F771F8827BF
:100608007E57880B7D938C937EE7769567950EF0E1
:10061800089530976040704009F070580895552348
:1006280042F4503811F4E0FF04C03196691F791F75
:100638006BF050E8572711F45F93CFC05F3F31F05C
:10064800660F000C57956795752F08955F930020E6
:100658000AF0CFC0C8C050E8192E1522880F991F7C
:100668009527550F879550E8072E0522660F771FA7
:100678007527550F67950895689401C0E8945F93AE
:10068800F2DF703818F07F3F08F4A7C056E1571B17
:10069800AAF4519558300EF4593030F0EFEFFFEFCF
:1006A8006FEF7FE777F91AC077275523B9F0EE0F78
:1006B800FF1F661F771F5A95D1F710C0772758304C
:1006C80028F0EF2FF62F672F5850F9CF552331F028
:1006D80076956795F795E7955A95D1F700200AF42E
:1006E8004AD15F910895689401C0E89430976040BA
:1006F8007040B1F0002426F0772312F400943BD127
:10070800172E7EE1112032F07A95EE0FFF1F661F3B
:10071800111CF9CFEF2FF62F612D5F938ADF5F91C0
:1007280008954F93AF01FD01DA01AB01BC01CA0185
:10073800402D012C142E4F910895EA0FFB1F681FBE
:100748000895E095F0956095EF5FFF4F6F4F08951E
:100758005F9381DF903871F150E8152604C05F93EC
:100768007ADF903839F1703821F1572F591B2BF166
:1007780012F4D7DFFACF583118F0AA27BB278827F9
:10078800583028F0AB2FB82F88275850F9CF552369
:1007980029F08695B795A7955A95D9F7502D5125E3
:1007A80072F0CBDF38F46795F795E795739513F4F6
:1007B80020C0B7DF3EDF5F910895D8F7FBCFEA1B73
:1007C800FB0B680B51F010F40094BBDF662392F327
:1007D800EE0FFF1F661F7A95CBF7EE27FF276627D8
:1007E80077275F910895EFEFFFEF6FE77FEF5F9156
:1007F8000895EFEFFFEF6FE77FE75F9108955F934D
:100808002ADF703851F3903841F301240894791F96
:1008180023F41CF300203AF3ECCF0F921F932F938D
:100828003F934F93112722279927689FA0018F9FF5
:10083800302D410D591F6B9F300D411D591F8E9F43
:1008480027D0BF9F25D06A9F23D0BE9F1DD0AF9FC2
:100858001BD0AE9F110D291F391F491F591FE32FA8
:10086800F42F652F522F4F913F912F911F910F9089
:1008780066232AF0550FEE1FFF1F661F02C07395EF
:100888004BF2CDDE5F910895100D211D391F02C076
:10089800200D311D491F591F08955F93DCDE703804
:1008A80021F411200AF49FCFA4CF903809F495CFF2
:1008B80001240894970B1BF4D4F30020F3CF792F6D
:1008C8001F932F933F934F931124112722273327E8
:1008D8004427552790E2AE17BF078607410730F037
:1008E800AE1BBF0B860B410B089401C08894551FA3
:1008F800221F331F111CAA1FBB1F881F441F9A9554
:1009080051F7F901612D4F913F912F911F91662366
:1009180032F0550FEE1FFF1F661F7A9543F27FDEF8
:100928005F91089599239AF0772342F0971748F03A
:1009380029F4AE17BF07860720F031F09894889401
:10094800089598940894089518948894089577239E
:10095800C2F7971798F3A9F7EA17FB07680788F310
:1009680099F3ECCFEA0FFB1F681F791F0895F195E3
:10097800E195F0400895F09560957095E195FF4FE9
:100988006F4F7F4F08956F2F660F660B762F089570
:10099800FA9FF02DEB9FF00DEA9FE02DF10D0895E1
:1009A8002AD0F6DF0EF4E3DF08950024112490E145
:1009B800AA0FBB1F001C111C0E1A1F0A18F40E0EDA
:1009C8001F1E01C0A1609A9599F7FD01D0010895F5
:1009D80012D0EBDF0EF4CBDF0895E894B7FF04C024
:1009E800A095B09511966894F7FDC1DFDEDFFD0193
:1009F8000EF4BDDF0895E894F7FF02C0B8DF6894ED
:100A0800B7FF06C0A095B095119600F8039400FAB8
:100A18000895E881F9816A817B810895A881B98167
:100A28008A819B810895E883F9836A837B8308958B
:100A38007A936A93FA93EA9308959A938A93BA9366
:100A4800AA930895182E862F612D192E972F712D90
:100A58001B2EBF2FF12D1A2EAE2FE12D0895E199EF
:100A6800FECFFF93FFB7F894AEBBBFBBE09AEDB3E0
:100A7800FFBFFF910895E19B02C0A895FCCF9FB7E7
:100A8800F894AEBBBFBBE09A8DB3E81719F0EDBB85
:100A9800E29AE19A9FBF089500240A160B060806F9
:100AA800090608951A930A930895198108810895EB
:00000001FF
